{
	"data": {
		"bytecode": {
			"linkReferences": {},
			"object": "608060405234801561001057600080fd5b5060db8061001f6000396000f3fe608060405260043610603f576000357c0100000000000000000000000000000000000000000000000000000000900463ffffffff16806385ebbdf9146044575b600080fd5b348015604f57600080fd5b50607960048036036020811015606457600080fd5b8101908080359060200190929190505050607b565b005b600a811015608e576000808190555060ac565b601481101560a257600160008190555060ab565b60026000819055505b5b5056fea165627a7a7230582049dadadfa9ccabfe6bc67328932e55af707d69650a1c37b84dbed495575b67af0029",
			"opcodes": "PUSH1 0x80 PUSH1 0x40 MSTORE CALLVALUE DUP1 ISZERO PUSH2 0x10 JUMPI PUSH1 0x0 DUP1 REVERT JUMPDEST POP PUSH1 0xDB DUP1 PUSH2 0x1F PUSH1 0x0 CODECOPY PUSH1 0x0 RETURN INVALID PUSH1 0x80 PUSH1 0x40 MSTORE PUSH1 0x4 CALLDATASIZE LT PUSH1 0x3F JUMPI PUSH1 0x0 CALLDATALOAD PUSH29 0x100000000000000000000000000000000000000000000000000000000 SWAP1 DIV PUSH4 0xFFFFFFFF AND DUP1 PUSH4 0x85EBBDF9 EQ PUSH1 0x44 JUMPI JUMPDEST PUSH1 0x0 DUP1 REVERT JUMPDEST CALLVALUE DUP1 ISZERO PUSH1 0x4F JUMPI PUSH1 0x0 DUP1 REVERT JUMPDEST POP PUSH1 0x79 PUSH1 0x4 DUP1 CALLDATASIZE SUB PUSH1 0x20 DUP2 LT ISZERO PUSH1 0x64 JUMPI PUSH1 0x0 DUP1 REVERT JUMPDEST DUP2 ADD SWAP1 DUP1 DUP1 CALLDATALOAD SWAP1 PUSH1 0x20 ADD SWAP1 SWAP3 SWAP2 SWAP1 POP POP POP PUSH1 0x7B JUMP JUMPDEST STOP JUMPDEST PUSH1 0xA DUP2 LT ISZERO PUSH1 0x8E JUMPI PUSH1 0x0 DUP1 DUP2 SWAP1 SSTORE POP PUSH1 0xAC JUMP JUMPDEST PUSH1 0x14 DUP2 LT ISZERO PUSH1 0xA2 JUMPI PUSH1 0x1 PUSH1 0x0 DUP2 SWAP1 SSTORE POP PUSH1 0xAB JUMP JUMPDEST PUSH1 0x2 PUSH1 0x0 DUP2 SWAP1 SSTORE POP JUMPDEST JUMPDEST POP JUMP INVALID LOG1 PUSH6 0x627A7A723058 KECCAK256 0x49 0xda 0xda 0xdf 0xa9 0xcc 0xab INVALID PUSH12 0xC67328932E55AF707D69650A SHR CALLDATACOPY 0xb8 0x4d 0xbe 0xd4 SWAP6 JUMPI JUMPDEST PUSH8 0xAF00290000000000 "
		},
		"gasEstimates": {
			"creation": {
				"codeDepositCost": "43800",
				"executionCost": "93",
				"totalCost": "43893"
			},
			"external": {
				"exampleIfElse(uint256)": "20295"
			}
		},
		"methodIdentifiers": {
			"exampleIfElse(uint256)": "85ebbdf9"
		}
	},
	"abi": [
		{
			"constant": false,
			"inputs": [
				{
					"name": "x",
					"type": "uint256"
				}
			],
			"name": "exampleIfElse",
			"outputs": [],
			"payable": false,
			"stateMutability": "nonpayable",
			"type": "function"
		}
	]
}